:020000040800F2
:1000000000070020F1010008492E0008012E000819
:10001000292E0008012E0008212E0008F3010008F7
:10002000F3010008F3010008F3010008F53E0008A1
:10003000F3010008F3010008F3010008F3010008D0
:10004000F3010008F3010008F3010008F3010008C0
:10005000F3010008F3010008F3010008F3010008B0
:10006000F3010008F3010008F3010008F3010008A0
:10007000F3010008F3010008F3010008F301000890
:10008000F3010008F3010008F3010008F301000880
:10009000F3010008B12D0008C52D0008F301000888
:1000A000F3010008F3010008F3010008F301000860
:1000B000DD410008F3010008F3010008F301000826
:1000C000F3010008F3010008F3010008F301000840
:1000D000F3010008F3010008F3010008F301000830
:1000E000F3010008F3010008F3010008F301000820
:1000F000F3010008F3010008F3010008F301000810
:10010000F3010008F3010008F3010008F3010008FF
:10011000F3010008F3010008F3010008F3010008EF
:10012000F3010008F3010008F3010008F3010008DF
:10013000F3010008F3010008F3010008F3010008CF
:10014000F3010008F3010008F3010008F3010008BF
:10015000F3010008F3010008F3010008F3010008AF
:10016000F3010008F3010008F3010008F30100089F
:10017000F3010008F3010008F3010008F30100088F
:10018000F3010008F3010008F3010008F30100087F
:10019000F3010008F3010008D92D0008ED2D000837
:1001A000F3010008F3010008F3010008F30100085F
:1001B000F3010008F3010008F3010008F30100084F
:1001C000F3010008F3010008F3010008F30100083F
:1001D000F3010008F3010008F3010008F30100082F
:1001E000F5160008FFFFFFFFFFFFFFFFFFFFFFFF08
:1001F00002E000F000F8FEE772B6374880F30888A6
:10020000364880F3098836483649086040F20000D5
:10021000CCF200004EF63471CEF200010860BFF35C
:100220004F8FBFF36F8F40F20000C0F2F0004EF628
:100230008851CEF200010860BFF34F8FBFF36F8F7C
:100240004FF00000E1EE100A4EF63C71CEF20001D4
:100250000860062080F31488BFF36F8F04F054FC0D
:1002600004F026FD4FF055301F491B4A91423CBF18
:1002700041F8040BFAE71D49184A91423CBF41F886
:10028000040BFAE71A491B4A1B4B9A423EBF51F82E
:10029000040B42F8040BF8E700201849184A914271
:1002A0003CBF41F8040BFAE704F032FC04F046FDD1
:1002B000144C154DAC4203DA54F8041B8847F9E797
:1002C00000F0E8FB114C124DAC4203DA54F8041B69
:1002D0008847F9E704F01ABC00070020002300203B
:1002E0000000000808ED00E00001002000070020E9
:1002F000484F000800230020902300209023002076
:1003000090650020E0010008E4010008E401000815
:10031000E40100082DE9F04F2DED108AC1F80CD052
:10032000C3689D46BDEC108ABDE8F08F002383F3BF
:1003300011882846A047002004F07EF8FEE704F06C
:1003400001F800DFFEE7000080EA0102844612F0B7
:10035000030F4FD111F0030F32D14DF8044D11F0BE
:10036000040F51F8043B0BD0A3F101329A4312F071
:10037000803F04BF4CF8043B51F8043B16D100BF4A
:1003800051F8044BA3F101329A4312F0803FA4F1DB
:1003900001320BD14CF8043BA24312F0803F04BF62
:1003A00051F8043B4CF8044BEAD023460CF8013BCF
:1003B00013F0FF0F4FEA3323F8D15DF8044B704779
:1003C00011F0010F06D011F8012B0CF8012B002AB7
:1003D00008BF704711F0020FBFD031F8022B12F0A6
:1003E000FF0F16BF2CF8022B8CF8002012F47F4F61
:1003F000B3D1704711F8012B0CF8012B002AF9D169
:10040000704700BF10B4044C03460A4620685DF8EC
:10041000044B194604F08CBA0023002010B5054C9B
:1004200034B113460A4601460220AFF3008010BDE6
:10043000204610BD00000000024B0146186804F081
:100440007BBA00BF00230020024B0146186804F06D
:1004500077BA00BF0023002001292DE9F0415BD9C4
:100460004FF00108C64600244FF0FF35434608E030
:10047000A3EB05081C464FF0010E04EB0E03994256
:1004800010D900EB050CC75C1CF80E60B742EFD327
:1004900032D04FF001082546C646444404EB0E0313
:1004A0009942EED80127C2F80080BE4600244FF0E2
:1004B000FF363B4607E09F1B1C464FF0010E04EB46
:1004C0000E03994210D900EB060C10F803801CF8BB
:1004D0000EC0E045EFD817D001272646BE463C4463
:1004E00004EB0E039942EED80136681C864201D314
:1004F00017603046BDE8F081C6450ABF74440EF16E
:10050000010E4FF0010EB8E7BE450ABF74440EF16C
:10051000010E4FF0010ED2E701270026E8E700BFE9
:100520002DE9F04F164685B003AA0D460746194639
:1005300030461C46FFF790FFDDF80CA002468046CF
:1005400006EB0A01304600F027FA2A1B002852D198
:1005500001468446A4EB0A0BC8F10109CDF804A0BA
:100560008845434638BF0B469C4219D95D1E03EBB4
:100570000C003544384402E001339C4210D010F89E
:1005800001EB15F801AFF245F6D09C4208D9CC44F6
:100590009C4400219445E3D9002005B0BDE8F08FCC
:1005A000884508F1FF3367D908EB0C00384406EBA7
:1005B0000805CDF8008002E08B4212D0534615F8B2
:1005C000018D10F801EDF04503F1FF3AF4D0DDF8AC
:1005D000008001330131994208D8019B59469C445F
:1005E000D8E701319942DDF80080F6D907EB0C001D
:1005F00005B0BDE8F08FA4EB0801414538BF414686
:10060000444501F101014FF0000C31D908F1FF3EE2
:10061000C8F101090CEB080006EB0E05384443460F
:1006200002E001339C4223D010F801AB15F801BF62
:10063000D345F6D09C421BD9CC449C449445ABD8BE
:100640004445E7D806EB08090CEB08053D4448464D
:1006500001E0B342CAD010F801AD15F801EDF24542
:100660000346F6D08C44944596D84445CED8EBE763
:10067000B8F1000FE6D1B9E74346ABE72DE9F04FFB
:100680001546ADF21C4D06468A4605AA194628466F
:100690000093FFF7E1FE009B80460DF2144142F803
:1006A000043F8A42FBD15C1E002B00F0CE80691E05
:1006B00004EB050C06AF11F8010F5A1A013A2A444F
:1006C000614547F82020F6D1DDF814B0009305EB22
:1006D0000B014246284600F05FF9009B0146AAEB59
:1006E000030A00285CD1A3EB0B03C8F101020093BD
:1006F000CDE901B20346A9460AE021B10199914230
:10070000009988BF0A46134453454FF0000142D870
:1007100006EB030C1CF8042057F82220002AECD129
:100720008845424638BF0A46A24212D2551ED0180A
:100730004D44304402E00132A2420AD010F801EBED
:1007400015F801BFF345F6D0A24202D202990B443C
:10075000D9E7884508F1FF327BD908EB0300304424
:1007600009EB0805CDF80C8002E08A426AD05A46AF
:1007700015F8018D10F801EDF04502F1FF3BF4D0C2
:10078000DDF80C8001320131914260D8019A009964
:1007900013445345BCD900200DF21C4DBDE8F08F29
:1007A000A3EB080343454FF0000C38BF434606EB6C
:1007B0000C0001330193035D57F8233008F1FF3932
:1007C000C8F1010B4BB19C44D445E4D806EB0C00B6
:1007D000035D57F82330002BF5D1A04517D208EB65
:1007E0000C02324405EB09014346CDF800C002E09B
:1007F0000133A34223D012F801CB11F801EFE645F3
:10080000F6D0DDF800C0A34238BFDC44DBD3B8F13A
:10081000000FC1D008EB0C01314405EB0802CDF804
:1008200000C001E0AB42B7D012F801ED11F801CDE4
:10083000E6451346F6D0DDE900C39C44C4E7DDF885
:1008400000C0E4E7DDF80C809DE706AF3CE76046BA
:10085000A2E7424697E700BF2DE9F0470446C0B043
:10086000002B6AD0012B0D4690461F4600F0868073
:100870008B425ED8CD1A022B00EB050661D0B3F592
:10088000807F00F282804FF48072002168465D1EF6
:1008900000F0BAFF98F80010012240460B4610F80D
:1008A000011FA1EBC303DBB20DF803200132954217
:1008B000F4D808EB07034FF0000A13F8022C18F8DD
:1008C0000530A3EBC203DBB21DF803900DF8035013
:1008D000A5EB0909B44201D92BE063B92C44A64227
:1008E00014F8013C94F800C0ACEBC30C5FFA8CFC2C
:1008F0001DF80C30F1D29D42A4EB0304EAD80F2D71
:1009000007D9042208EB0A0104EB0A0000F044F8BE
:1009100060B92A464146204600F03EF868B1BAF177
:10092000030F8CBFAAF1040AA7F1050A4C44B44294
:10093000D4D9002040B0BDE8F087204640B0BDE8E3
:10094000F08713785078217840EA0340234613F863
:10095000012F9E4242EA01421BD39042EDD0013664
:1009600001E0904208D013F8011F9E4241EA024282
:10097000F7D18242DDD13346581EDBE711782A4693
:1009800040B0BDE8F04700F035B840B0BDE8F047F2
:1009900074E61E46EDE700BF032A30B415D941EADC
:1009A0000004A40784460B4604D0541E0FE0043A0A
:1009B000032A08D91946604653F8044B5CF8045BD7
:1009C000A542F4D0F1E760461946541E7AB1431EA1
:1009D0000139021901E09A4209D013F8010F11F808
:1009E00001CF6045F7D0A0EB0C0030BC7047002071
:1009F00030BC704701F0FF01102A2BDB10F0070F0D
:100A000008D010F8013B013A8B422DD010F0070FAF
:100A100042B3F6D1F0B441EA012141EA014122F0AA
:100A200007047FF000070023F0E80256083C85EA3F
:100A3000010586EA010685FA47F5A3FA87F586FAE5
:100A400047F6A5FA87F68EB9EED1F0BC01F0FF01AA
:100A500002F0070232B110F8013B013A83EA0103C8
:100A600013B1F8D10020704701387047002D06BF40
:100A700035460338073815F0010F07D1013015F45A
:100A8000807F02BF013015F4C03F0130F0BC013857
:100A9000704700BFF8B500F043FE03F0D3FF0746F0
:100AA00004F024F80546C0BB294B9F4235D00133E2
:100AB0009F4235D0274B27F0FF029A4233D1F8B23C
:100AC00000F05CFC2E4642F2107400F05DFC08B1B0
:100AD0000024264601F014F948B3032000F03EF844
:100AE0000024264635B11C4B9F4203D003F0F6FF8D
:100AF00000242646002003F0AFFF0EB100F044F8BA
:100B000000F076FC02F0A8F90546C4B900F0C2FC7A
:100B10004FF47A7003F096FCF7E72E460024D4E7F2
:100B200004460126D1E7064640F6C414CDE740F658
:100B3000C4139C4204BF4FF47A740126D2E702F03A
:100B40008BF9431BA342E1D900F01EF8DAE700BF9E
:100B5000010007B0000008B0263A09B0084B187031
:100B600003280CD8DFE800F008050208022000F096
:100B700035BE022000F028BE024B00225A607047AA
:100B8000982300209023002010B501F0B9F830B16F
:100B9000234B03221A70234B00225A6010BD224BB4
:100BA000224A1C4619680131F8D004339342F9D126
:100BB0006268A242F2D31E4B9B6803F1006303F507
:100BC00010439A42EAD203F05BFF03F06DFF00206E
:100BD00000F0C0FD0220FFF7C1FF164B9A6D002206
:100BE0009A65996F9A67996FD96DDA65D96FDA67E7
:100BF000D96F196E1A66D3F88010C3F88020D3F825
:100C0000803072B64FF0E0233021C3F8084DD4E9AC
:100C1000003281F311889D4683F308881047BDE7B1
:100C200098230020902300200090000820900008C6
:100C30005023002000100240094A136849F269005D
:100C400099B21B0C00FB01331360064B186844F289
:100C5000506182B2000C01FB0200186080B2704744
:100C6000642300206023002070B50C4615461E4604
:100C700002F048FC50B9022E10D1012D0ED112A362
:100C8000D3E90023C4E90023012007E0282D10D078
:100C900005D8012D09D0052D0FD0002070BD302DB5
:100CA000FBD10BA3D3E90023ECE70BA3D3E900238B
:100CB000E8E70BA3D3E90023E4E70BA3D3E9002380
:100CC000E0E700BFAFF30080401DA12026812A0B82
:100CD00078F6339F93CACD8D9E6AC421818A46EEF1
:100CE00026417272DF25D7B7F017304A39059E5674
:100CF00010B500211022044600F086FD034B03CB03
:100D0000206061601868A06010BD00BF9075FF1F73
:100D1000F0B5ADF5517D6EAC4FF4C47207460D468B
:100D20002046002100F070FD02F096F8244B4FF4AD
:100D30007A72B0FBF2F0186093E80700022384E8AF
:100D400007000DF5ED702382FFF7D2FF49F204236F
:100D50001C49238406A8FFF7F7FA212384F83231CF
:100D60000DF2EB2206AB0DF1380C1E4603CE6645A4
:100D700010605160334602F10802F6D133781370E7
:100D80000FAE31460122204600F08AFD80B2CDE947
:100D9000046000230393AB7E029305F119030193D2
:100DA00001230093E97E04A3D3E90023384602F02F
:100DB0004BFC0DF5517DF0BD9E6AC421818A46EE43
:100DC000DC2800207C4D00082DE9F0412C4C237AD2
:100DD000DAB080460D465BBB27A9284600F086FEA8
:100DE0000746002842D19DF89D60C82E3ED8014696
:100DF0004FF4A662204600F007FD4FF48073C4F85C
:100E0000F8314FF40073C4F80C3332464FF440739A
:100E10000DF19E0104F10900C4F82034264400F0CD
:100E2000E7FC9DF89C30777223720BB9EB7E23723E
:100E30008122002106AC27A800F0E6FC0122214611
:100E400027A800F099FE80B2CDE904400023039367
:100E5000AB7E029305F11903019328230093E97EE9
:100E600005A3D3E90023404602F0EEFB5AB0BDE8EB
:100E7000F08100BFAFF3008026417272DF25D7B743
:100E8000A4230020F0B5254E4FF48A73F1B003FB84
:100E90000065002496F8D83085F8DC30D022214651
:100EA0003CA885F8E84000F0AFFC06F1090000F02E
:100EB000A9FCD5F8E4308DF8F000C2B206AF06F117
:100EC00009010DF1F100CDE93A3400F091FC394609
:100ED00001223AA800F084FE80B2CDE90470082314
:100EE0000127CDE9023706F1D8030193302300939F
:100EF000317A0B4807A3D3E9002302F0A5FBA042F7
:100F000006DD01F0A9FFC5F8E000384671B0F0BD7C
:100F10002046FBE778F6339F93CACD8DA4230020AB
:100F2000946200202DE9F04F274FDFF8A880274E6C
:100F300087B0384602F0B4FB034600283DD00024B9
:100F4000CDE90344ADF814401A7B8DF8142058689D
:100F50009968029403AA03C21B681D4D43F0004325
:100F60000293A146A2462B68D3F810B001F076FF99
:100F700010EB080241F100032846CDF800A002A9B9
:100F8000D84704F2345440F668230028C8BF49F01B
:100F9000010905F5A6559C4205F11005E3D1B9F10B
:100FA000000F05D0384602F07FFB86F800A0C0E7AE
:100FB0003378072B04D80133337007B0BDE8F08FC6
:100FC000014802F071FBF8E794620020A1230020A1
:100FD000F028002040420F0010B50021044600F028
:100FE000DBFB601C0B4C80B2A4F82C0500F0BCFBB2
:100FF00070B1B4F82C0500F0C7FB014640B9B4F855
:101000002C0500F0C9FBB4F82C05013080B2EBE7E9
:1010100010BD00BFA4230020F8B50D4C0D4F0325D3
:10102000013D14D0A4F5805343F8407C237E3BB9A6
:1010300066692EB1304600F0DDFE304601F014F84E
:101040002046A4F5A65400F0D5FE103CE8E7F8BD14
:10105000004E0020E04D00082DE9F04F8FB000AFAA
:1010600005460C4602F04EFA00284AD1237E022B98
:101070001AD1E38A012B17D101F0EEFE0646FFF7E5
:10108000DBFD4FF4C873DFF8EC82B0FBF3F206F53A
:10109000167602FB130316FA83F3C8F80030E37EDA
:1010A00033B9AE4B00221A703C37BD46BDE8F08F15
:1010B00007F12401204600F0CDFC0028F4D107F10F
:1010C0001400FFF715FE97F8264007F11401224699
:1010D00007F12700FFF760FC0028E2D10F2C08D8A9
:1010E0009E4B1C70D8F80030A3F51673C8F800307A
:1010F000DAE797F824100029D6D0284602F0FAF94A
:10110000D2E7E38A282B38D010D8012B30D0052B1A
:10111000CAD1BFF34F8F9249924BCA6802F4E06282
:101120001343CB60BFF34F8F00BFFDE7302BBBD124
:10113000DFF844B2E17E9BF808209142B4D1607E92
:101140005946002291F8DC50854200F0B48001320B
:10115000042A01F58A71F5D1DBF8002040F6B83198
:10116000FA328A4294BFCBF80020CBF800109BE7FC
:1011700021462846FFF7CCFD96E721462846FFF793
:1011800023FE91E7B2F8EC507B60EA1C930822F052
:1011900003020732D208BB60A8EBC2039D46BB68BE
:1011A000EA469A000021504600F02EFB7B6803F1CE
:1011B000EE012A465944504600F01AFB14B90120AA
:1011C00000F0C8FA9BF8D20000F0CEFA044638B915
:1011D0008BF8080000F0E8FA204600F0BBFAB4E013
:1011E000DBF8D4203AB99BF8D200BBF82C25824218
:1011F00001D8FFF7F1FEDBF8D4202A44944208D24C
:101200009BF8D200BBF82C250130824201D8FFF7B1
:10121000E3FE3A7ADBF80400514600F0FDFA08B923
:10122000C5467BE0DBF804209BF8D2002A44CBF8CB
:101230000420DBF8D42005EB020ACBF8D4A000F0A0
:1012400093FA824509D39BF8D22001328BF8D22041
:10125000DBF8D420121BCBF8D420FF2D10D80024AB
:101260008BF8084000F0A0FA204600F073FA00F076
:1012700047FD3D4B188108B9FFF786FCC54613E7CB
:10128000FB689BF8D90009FB03B2D2F8E41082F89E
:10129000E86001F58061C2F8E060C2F8E410FFF791
:1012A000F1FDFFF73FFE9BF8D920013202F0030267
:1012B0008BF8D920B4E74FF48A7909FB02F505F1E0
:1012C000EA015944204600F0BFFC064600287FF49E
:1012D000EBAE5D44012285F8E82001F0BDFDD5F8B4
:1012E000E020DBED007ADFED216A801A192838BF93
:1012F000192040F6B832904228BF1046B8EE677AFF
:1013000007EE900AF8EEE77A67EEA67ADFED186A44
:10131000E7EE267AFCEEE77ACBED007A9BF8D9303F
:10132000FB6009FB03F30BEB0302DBF8040092F80C
:10133000E81059B1D2F8E4408442E8463FF422AFC5
:10134000002182F8E810C2F8E010C546DBF804304E
:10135000054A9B0A01331381A6E600BFD42800206A
:1013600000ED00E00400FA05DC280020CDCCCC3DE7
:101370006666663FD8280020A4230020014B187021
:10138000704700BF9052002038B54FF00054144B06
:1013900022689A4221D1607DF0B1124B1249187037
:1013A0001248237D03724FF48073C0F8F8314FF474
:1013B0000073C0F80C3300254FF44073C0F820349C
:1013C000C0F8E450C922093000F012FAE0222946A0
:1013D000204600F019FA012038BD0020FCE700BFCC
:1013E0009AAD44C59052002016000020A42300208E
:1013F00037B500F085FC1E4C1E4D1F492881022385
:101400006B712368204604F580545B689847D4F8D4
:10141000D03419495B6804F59A609847002301931A
:10142000164B174900931748174B4FF4805202F0A0
:1014300039F8164B197811B1124802F05BF801F037
:101440000BFD0446FFF7F8FB4FF4C87304F5167460
:10145000B0FBF3F202FB13000D4B14FA80F018609E
:1014600003F044FB08B10F232B8103B030BD00BF54
:10147000F0280020DC28002040420F00690C000802
:1014800094520020946200205910000890520020CD
:10149000D82800202DE9F04F2DED028B002593B0C8
:1014A0000BAFDFF84C92FFF73DFD0A95ADF83450D5
:1014B0000B957D609FED7F8B4FF00008834CDFF82C
:1014C00010B2464601238DF81C3023688DF81D505C
:1014D0008DED008B0DF11D02D3F808A007A90023A4
:1014E0002046D0479DF81CA0BAF1000F24D0D9F8AF
:1014F000143083F40053C9F81430102200210EA8D0
:1015000000F082F9236808AA5E690AA90DF11E039A
:101510002046B04797E803000FAB83E803009DF82F
:1015200034308DF844300A9B0E930EA9DDE9082370
:10153000584602F093FA564640F2345304F5A65446
:10154000984504F1100440F0A280002EB2D160480A
:1015500001F0D8FF002840D15E4F01F07DFC3B68D0
:1015600098423AD301F078FC0446FFF765FB4FF44C
:10157000C87304F51674B0FBF3F202FB130014FAFF
:1015800080F03860544F97F80080B8FA88F3C8F1BB
:101590001004E4B25B090EA88DF82830FFF7A8FB11
:1015A000062C28BF06240EAB224603EB08010DF1E2
:1015B000290000F01DF90AAB0393182302930134AC
:1015C000464B0193E4B201230093414804943BA3AA
:1015D000D3E9002301F0DAFF3E7001F03DFC404A00
:1015E000404C1368C31AB3F57A7F2FD3106001F013
:1015F00035FC02460B46364802F060F8344801F0EC
:1016000081FF18B3237A384E002B0CBF022303232B
:10161000737101F021FC0EAF4FF47A730122B0FB1D
:10162000F3F039463060304600F0ECF918230293AD
:101630002E4B019380B240F25513CDE90370009315
:10164000234820A3D3E9002301F0A0FF237A93B11C
:1016500001F002FC002607464FF48A7894F8D9007E
:10166000304400F0030008FB004393F8E82082B107
:101670000136042EF2D1C82002F0E4FE237A002BBA
:101680007FF40EAF13B0BDEC028BBDE8F08F98462F
:1016900018E7D3F8E02042B12368FA2B38BFFA23C9
:1016A000BA1A0533B2EB430FE2D3FFF7EBFB002886
:1016B000DED1E0E70000000000000000401DA12096
:1016C00026812A0BF1C6A7C1D068080FF028002098
:1016D00094620020D8280020D4280020E828002088
:1016E0009C230020A4230020DC280020A02300202D
:1016F0000008004808B5064800F094FE054800F0D0
:1017000091FEBDE80840044A0449002003F030BBC4
:10171000F0280020C03D00200063002019100008C0
:1017200070B503F029F8094E094C30800025206877
:101730003388834208D903F01BF82368054401333A
:10174000B5F5104F2360F2D370BD00BFEC620020EE
:10175000F062002003F0C6B800F10060920000F5CE
:10176000104003F04FB80000054B1A68054B1B886A
:101770009B1A834202D9104402F0FABF002070473E
:10178000F0620020EC620020024B1B68184402F05B
:10179000F7BF00BFF0620020024B1B68184403F043
:1017A00003B800BFF0620020064991F8243033B13D
:1017B0000023086A81F824300822FFF7CDBF0120FA
:1017C000704700BFC4620020022802BF024B4FF0E6
:1017D00000529A61704700BF00080048022802BF0B
:1017E000024B4FF400529A61704700BF0008004856
:1017F00010B50023934200D110BDCC5CC45401331A
:10180000F8E70000FFF7FEBF02440346934200D111
:10181000704703F8011BF9E72DE9F8431F4D144603
:1018200095F824200746884622B9DFF870906CB9F5
:10183000012009E02B6A03EB82038342F5D0FFF716
:10184000B3FF0028F1D10020BDE8F88395F82430DB
:101850002BB92022FF2148462F62FFF7D5FF95F8CC
:101860002400C0F10802A24228BF2246D6B2414657
:10187000920005EB8000FFF7BBFF95F82430A41B16
:101880001E44F6B2082E17449044E4B285F8246052
:10189000CDD1FFF789FF0028C9D1D4E7C462002069
:1018A0002DE9F3470D46044600219046284640F2B4
:1018B0007912FFF7A9FF234620220021284602F0D3
:1018C0006BF8231D02222021284602F065F8631DD3
:1018D00003222221284602F05FF8A31D03222521BE
:1018E000284602F059F804F108031022282128465E
:1018F00002F052F804F1100308223821284602F0C1
:101900004BF804F1110308224021284602F044F864
:1019100004F1120308224821284602F03DF804F1A0
:10192000140320225021284602F036F804F118034F
:1019300040227021284602F02FF804F120030822EB
:10194000B021284602F028F804F121030822B8212A
:10195000284602F021F804F12207C0263B46314612
:1019600008222846083602F017F8B6F5A07F07F1DE
:101970000107F3D194F832308DF8073031460DF17C
:1019800007030822284602F007F8002604F1330A6C
:101990009DF807304FEAC6099E4209F5A47720D387
:1019A00094F83231502B28BF50238DF80730B8F10E
:1019B000000F08D139460DF107030722284601F030
:1019C000EBFF09F24F17002604F233149DF807309D
:1019D0009E4207EBC6010DD30731C80802B0BDE82F
:1019E000F0870AEB060308223946284601F0D4FFA7
:1019F0000136CDE7A3190822284601F0CDFF0136B4
:101A0000E4E7000038B50C46002105462160034696
:101A1000C4F803102046202201F0BEFF2B1D2046F3
:101A20000222202101F0B8FF6B1D20460322222153
:101A300001F0B2FFAB1D20460322252101F0ACFFCF
:101A4000204605F108031022282101F0A5FF0720F8
:101A500038BD0000F7B5057F04460E462DB1838AD8
:101A6000122B02D9012003B0F0BD00231946072232
:101A70000096204601F05CFE731C009301220023B7
:101A80000721204601F054FED5B9B31C009305226E
:101A90002B460821204601F04BFE0D25B378102B74
:101AA000E0D83746B278BB1B934210D3237FA08A7D
:101AB0000735ED08B3B9A8422CBF00200120D2E7BA
:101AC000A38ADB00083BDB08B3700825E6E7FB1CB4
:101AD0000093294600230822204601F029FE0835FC
:101AE0000137DFE7401B18BF0120BCE7F7B5047FD3
:101AF00005460E462CB1838ACA2B02D9012003B0B9
:101B0000F0BD0023009608221946284601F010FE79
:101B1000DCB9731C0822009311462346284601F0C5
:101B200007FE10247378C82BE8D8012372785F1C55
:101B3000013B934210D32B7FA88A0734E408B3B942
:101B4000A0422CBF00200120D9E7AB8ADB00083B74
:101B5000DB0873700824E5E7F3190093214600239E
:101B60000822284601F0E4FD08343B46DEE7001B6E
:101B700018BF0120C3E70000F7B50E460446002158
:101B8000154630468122FFF73FFE234608220021FA
:101B9000304601F001FF63787F2B28BF7F238DF84B
:101BA00007309DB90DF1070307220821304601F0E7
:101BB000F3FE0F27002502349DF807309D4207EB06
:101BC000C50105D30731C80803B0F0BD0827F1E708
:101BD00063190822304601F0DFFE0135ECE7000012
:101BE000F7B50E460546002114463046CE22FFF7D3
:101BF0000BFE2B4628220021304601F0CDFE2B7A29
:101C0000C82B28BFC8238DF807308CB90DF1070306
:101C100008222821304601F0BFFE30242F469DF8CF
:101C200007207B1B934205D3E01DC00803B0F0BD25
:101C30002824F3E707F1090321460822304601F082
:101C4000ABFE08340137EAE7F7B5047F05460E46D8
:101C500034B1838AB3F5827F02D9012003B0F0BD8D
:101C60000096012310220021284601F061FDDCB915
:101C7000B31C0093092223461021284601F058FD89
:101C800019247388B3F5807FE7D837467288BB1B69
:101C9000934210D32A7FAB8A0734E408B2B99C423E
:101CA00094BF00200120D9E7AB8ADB00103BDB08A2
:101CB00073801024E5E73B1D009321460023082292
:101CC000284601F035FD08340137DFE7E01A18BF78
:101CD0000120C3E730B5094D0A44914200D130BD1F
:101CE00011F8013B5840082340F30004013B2C400D
:101CF00013F0FF0384EA5000F6D1EEE72083B8ED3D
:101D0000F7B5364A106851686B4603C36A463449D2
:101D100034480823FEF7A0FD044618B30369B3F561
:101D2000EE2F54D8418B40F29242914251D12E4A2B
:101D3000024402F110018B424DD3103B294900208F
:101D40009D1AFFF7C7FF2A46064604F11801002036
:101D5000FFF7C0FFA3689E4202D1E368984232D0E9
:101D60000D2500E00A25214A106851686B4603C31F
:101D70006A461F491B480823FEF76EFD044618B348
:101D80000369B3F5EE2F1FD8B0F8661040F2924207
:101D9000914219D1144A024402F15C018B4213D3DF
:101DA0005C3B104900209E1AFFF794FF324607461D
:101DB00004F164010020FFF78DFFA3689F4203D167
:101DC000E368984200D10025284603B0F0BD0B25FA
:101DD000C9E70C25C7E71025C5E700BF9E4D0008E1
:101DE000DC6F0700009000080870FFF7A74D00089F
:101DF000906F070010B5037C044613B90068FEF726
:101E000023FB204610BD00000023BFF35B8FC3609F
:101E1000BFF35B8FBFF35B8F8360BFF35B8F704754
:101E2000BFF35B8F0068BFF35B8F704770B50546EB
:101E30000C30FFF7F5FF05F1080604463046FFF7C2
:101E4000EFFFA04206D930466D68FFF7E9FF254451
:101E5000281A70BD3046FFF7E3FF201AF9E70000AB
:101E600070B50546406898B105F10800FFF7D8FF46
:101E700005F10C0604463046FFF7D2FF8442304697
:101E800094BF6D680025FFF7CBFF013C2C44201A5E
:101E900070BD000038B50C460546FFF7C7FFA042ED
:101EA00010D305F10800FFF7BBFF6B68BFF35B8F32
:101EB0000444B4FBF3F203FB1244AC600120BFF313
:101EC0005B8F38BD0020FCE72DE9F0411446074642
:101ED0000D46FFF7C5FF844228BF0446D4B1B8467B
:101EE00058F80C6B4046FFF79BFF06442E604046B7
:101EF0007E68FFF795FF331A9C4203D86C6001207F
:101F0000BDE8F0816B60A61B3B68AB603044E860C5
:101F10000220F5E72046F3E738B50C460546FFF703
:101F20009FFFA04210D305F10C00FFF779FF6B680B
:101F3000BFF35B8F0444B4FBF3F203FB1244EC6089
:101F40000120BFF35B8F38BD0020FCE72DE9F04393
:101F500085B0884669460746FFF7B6FF6C4606B26D
:101F600004EBC6060025B44207D129463846FFF7E0
:101F7000D3FF284605B0BDE8F083D4F8049054F8A8
:101F8000080B08EB05014A46FFF732FC4D44EAE72F
:101F9000F8B505460C300F46FFF742FF05F108067D
:101FA00004463046FFF73CFFA042304688BF6C68CD
:101FB000FFF736FF201A386020B130462C68FFF753
:101FC0002FFF2044F8BD000073B5144606460D46A9
:101FD000FFF72CFF844228BF0446DCB101A930463C
:101FE000FFF7D6FF019B3BB93268C5E90233C5E96B
:101FF0000024012002B070BD9C4238BF0194019BB7
:1020000028609C426B60F4D93268AA60E41AEC60E4
:102010000220EFE72046EDE72DE9FF410F46694634
:10202000FFF7D2FF6C4605B204EBC5050026AC42B3
:1020300003D1304604B0BDE8F081D4F8048054F8F0
:10204000081BB8194246FFF7D3FB4644EFE70000F0
:1020500038B50546FFF7E0FF044601462846FFF77E
:1020600019FF204638BD000008B1FEF7EDB97047F2
:1020700070470000036800221B68184700F5805075
:1020800090F869047047000000F5805090F86204F1
:102090007047000000F5805090F968047047000018
:1020A000302383F3118800F58052D2F8AC34D2F893
:1020B000A8145818D2F8A4341844D2F88C34184410
:1020C000D2F89C341844D2F898341844002383F38F
:1020D0001188704700F58050C0F8641401207047E3
:1020E0002DE9F74F0C4600F580511F4691F86234F8
:1020F000BDF83090054690469BB1D1F88834013345
:10210000C1F888342368980006D4237B082B0DD9A6
:10211000627B0AB10F2B09D9D1F88C340133C1F895
:102120008C344FF0FF3003B0BDE8F08F302383F3E1
:102130001188AB6BD3F8C420920215D5D1F8903436
:102140000133C1F89034D1F89434002B40F08780EB
:10215000CDF8009042463B462146284600F0D0FE8E
:10216000002383F31188DEE7D3F8C46022682B6B69
:10217000C6F301464FF0480A002A1AFB063AB4BFDC
:1021800042F080429204CAF8002023685B0044BFFA
:1021900042F00052CAF80020227B330643EA024391
:1021A000CAF80430627B42B143F44013CAF80430E9
:1021B000D1F8C0340133C1F8C03405EB461303F540
:1021C00083534FEA461B197F62F345111977207B31
:1021D00000F0E4FE0330801007D06368CAF80830CE
:1021E00001281CBFA368CAF80C30AB6B0122B240B7
:1021F000C3F8CC2005EB461106F1830305EB43132E
:1022000001F58351C3E900870831234604F10C022C
:1022100053F8040B41F8040B9342F9D11B880B804F
:1022200041F2780205EB0B039E5003F5805309F051
:10223000030293F87C1042F0100221F01F010A43C0
:1022400083F87C20002383F31188CDF80090424668
:102250003B462146284600F053FE012063E700205C
:102260007EE7000038B500F580540D46606DFFF73D
:10227000F7FD1F2809D9606D20222946FFF766FE69
:10228000A0F120035842584138BD0020FCE700006F
:1022900008B5302383F3118800F58050406DFFF7B7
:1022A000B3FD002383F3118808BD00000022026003
:1022B000828142608260704710B500220023C0E92D
:1022C00000230023044603810C30FFF7EFFF204674
:1022D00010BD00002DE9F0479A4688B007468846B1
:1022E0009146302383F3118807F580546846FFF741
:1022F000E3FF606DFFF79AFD1F282DD9606D202246
:102300006946FFF7A5FE202826D194F862341BB356
:1023100003AD444605AB2E4603CE9E42206061606D
:10232000354604F10804F6D130682060B388A380F4
:10233000DDE90023C9E90023BDF80830AAF8003020
:10234000002383F3118853464A464146384608B075
:10235000BDE8F04700F08EBD002080F3118808B082
:10236000BDE8F0872DE9F84F064635468846182225
:1023700000210430FFF748FA274B45F8403B06F5AB
:1023800082542F4638462037FFF796FFA742F9D1EF
:1023900006F580544FF4805325640025C4E91135B7
:1023A0006765012306F5835706F5A359E56484F8AC
:1023B000503084F85830083709F108094FF0000A06
:1023C0004FF0000B47E902AB3846FFF76FFF2037AD
:1023D00047F8105CB945F5D1B8F1010F84F868846D
:1023E000A4F86A54A4F86C54A4F86E5484F8705499
:1023F000A4F87254A4F87454A4F8765484F8785469
:1024000002D9064800F022FD054B53F82830B3638B
:102410003046BDE8F88F00BFE04D0008B04D000821
:10242000444E000810B5044B197804464A1C1A7033
:10243000FFF798FF204610BDF56200202DE9F84314
:1024400016460F4611B90020BDE8F883022001F0BE
:10245000BFFE2C4BB0FBF7F49F4294BF11230A231D
:10246000013BDBB25A1CB4FBF2F102FB1142DDB2BC
:1024700082BB4A1EB2F5806FE5D2C3EBC30E0EF1EC
:102480000304E210C4F3C704A5EB040802F1010938
:102490004FF47A735FFA88FC02FB033259FA88F82A
:1024A000B2FBF8F2B2F5617F18DC93B2621C5CFA01
:1024B00082F24A43B0FBF2F0B842C4D10CF1FF32D1
:1024C000072AC0D80120338071803071747186F87A
:1024D00006C0B9E7022DB6D0013BC3E70EF1FF32CB
:1024E0004FEAE20EC2F3C7042D1B0EF101025FFAA0
:1024F00085FC0EFB033352FA85F5B3FBF5F39BB273
:10250000D4E700BF3F420F0030B50D4B0D4D062004
:10251000013811D01C786C438C420ED1597851800F
:1025200099785171D9789171197911715B7903EBAF
:1025300083035B001380012030BD0633E8E700BF52
:102540001C4E000840420F0038B500F58053114A78
:1025500093F86834D55C4FF45472554305F18043C9
:1025600003F52443044600211846FFF74DF90A4BB2
:1025700020622B446362094B2B44A362084B2B441B
:10258000E362084B2B442363A36B0022C3F8C020F3
:1025900038BD00BF404E000870A40040B0A4004009
:1025A00088A5004078A600402DE9F04300F580554D
:1025B00089B095F86834022B04468846174600F225
:1025C000BC80A14A52F8231009B942F823009F4861
:1025D000C4F81C80017899B9302383F311889C4B8F
:1025E0009A6D42F000729A659A6B42F000729A639B
:1025F0009A6B22F000729A630123037081F31188B1
:1026000095F86134CBB9302383F31188914A95F85A
:102610006834D35C012B79D0022B7ED03BB90321E7
:10262000152001F0FBFD0321162001F0F7FD012329
:1026300085F86134002383F31188302383F31188F4
:10264000A26B936923F01003936100F005FC8146AF
:10265000A36B9E6916F0080666D19A6942F00102E2
:102660009A6100F0F9FB8146A36B9A69D00769D59E
:102670009A6942F002029A61A26B0023536583F3C8
:102680001188686DFFF7C0FB202200216846FFF724
:10269000BBF802A8FFF70AFE04F583536A463344E9
:1026A0000DF1180E9446BCE80300F445186059601B
:1026B000624603F10803F5D1DCF80000186020360B
:1026C0009CF804201A71B6F5806FDDD1002304F563
:1026D000A35285F8603485F863340A3241462046B7
:1026E000FFF7ACFE0646A0BBA26B936923F0010383
:1026F000936100F0B1FB0546A36B9B69D9071CD51C
:1027000000F0AAFB401BFA28F6D916E00321562058
:1027100001F084FD0321572087E70321582001F0B1
:102720007DFD0321592080E700F096FBA0EB090016
:10273000FA288DD9002383F311880026304609B08A
:10274000BDE8F08300F088FBA0EB0900FA288BD9E4
:10275000F0E795F86F3495F86E14C5F87C84013B6A
:1027600001391B0243EA416395F87014A26B0139E9
:102770000B43B5F86C14013943EA0143D361AFB39D
:1027800004F5A352123239462046FFF7BDFE88B940
:10279000A26B936923F00103936100F05DFB054692
:1027A000A36B9B69DA07C8D500F056FB401BFA28DB
:1027B000F6D9C2E7B5F8743495F87714C5F8807483
:1027C000013B01391B0443EA012395F87614A26BFF
:1027D00001390B4395F87814013943EA011343F4A6
:1027E0000003D360A36B4FF420629A642046FFF786
:1027F000ABFE002385F86934A36B6FF040421A6585
:10280000A36B154A5A65A36B44229A65A36B0722F2
:10281000C3F8DC20A36B0322DA65A26B936923F073
:102820000103936100F018FB0746A36B9B69DB076C
:1028300003D4012385F8623480E700F00DFBC01B50
:10284000FA28F2D979E700BFF8620020F46200208C
:1028500000100240404E00089B0008002DE9F04F98
:1028600000F5A5578BB00546904699464FF0000BF2
:1028700041F2780A1037AB6BD3F8D43023FA0BF35C
:10288000DC0753D505EB4B1151444FEA4B120B7942
:1028900018074BD405F58056D6F894340133C6F8A2
:1028A0009434C7E900890B79990648BFD6F8C43437
:1028B00005EB020148BF0133514448BFC6F8C43498
:1028C0000B7943F008030B71DB0724D596F86334CA
:1028D0000BB302A8019205F58354FFF7EDFC019AB2
:1028E0000834144405AB04F1080C206861681A46EA
:1028F00003C2083464451346F7D120681060A288EB
:102900009A800123ADF810302B68CDE902899B6BCA
:1029100002A928469847D6F8B834D6F8640401339B
:10292000C6F8B83410B103681B6998470BF1010B66
:10293000BBF1200F9FD10BB0BDE8F08F2DE9F04F18
:102940008FB004468A4600F089FA81460191BAF1B7
:10295000000F71D1A36BD3F89020970141BF04F50C
:102960008051D1F8A8240132C1F8A824D3F89020CE
:10297000160703D100200FB0BDE8F08FD3F89050B8
:10298000A66AC5F30125482303FB056602AF384656
:10299000FFF78CFC326851004ABF22F06043C2F35B
:1029A0008A4343F00043920048BF43F080430293C0
:1029B000736813F400131FBF04F5805201238DF8D0
:1029C0001530D2F8C8340EBF8DF815300133C2F877
:1029D000C834B6F806B00BF00F0B8DF814B04FF0FA
:1029E0000008584600F0DAFA5FFA88F383423CD3D5
:1029F000A36BBAF1000F43D1C3F8945006A8FFF7B8
:102A00005BFC97E80F0009AD07C52B80019B07937E
:102A10000023ADF820302368CDF8189020469B6B3A
:102A200006A9984704F5805468B3D4F8A03401335C
:102A3000C4F8A03401209EE7BAF1010F9AD1A36B2C
:102A4000D3F89820950141BF04F58051D1F8A8240E
:102A50000132C1F8A824D3F8982010078AD0D3F8FF
:102A60009850E66AC5F301258DE703F13802334437
:102A70000DEB02011B7A01F82C3C08F10108B0E7CC
:102A8000C3F89C50BAE7D4F8A4340133C4F8A43492
:102A9000D0E700002DE9F04105460E4600F58054D0
:102AA000012731462846FFF749FF60B9D4F8B8340A
:102AB000D4F864040133C4F8B83438B10368BDE80D
:102AC000F0411B69184784F86374EAE7BDE8F081B8
:102AD000F0B5836B1A6C12F47F0F2BD000F5805485
:102AE0001B6CC4F8BC3441F27805002347194FF041
:102AF000010C00EB43122A445E01117911F0020F20
:102B000015D0490713D4B959866BD6F8C8E00CFA2A
:102B100001F111EA0E0F0AD0C6F8D010117941F078
:102B200004011171D4F89C240132C4F89C240133AF
:102B3000202BDED1F0BD00002A4B70B51D561B5C6A
:102B4000012B2FD8284E294B56F8250053F8254045
:102B500008B341B3236D19060FD58023236500F018
:102B60007DF902460B4652EA030102D0013A63F1B5
:102B7000000356F82500FFF771FE226D56F8253048
:102B8000120328D54FF4002203F580532265012259
:102B900083F869241FE001232365082323654FF48C
:102BA0008063236570BD236DD90702D4236D9A0716
:102BB00004D5032323650021FFF76CFF236D1B075A
:102BC00002D4236DD80606D5182356F825002365B0
:102BD0000121FFF75FFF56F82500BDE87040FFF7C1
:102BE00077BF00BF3C4E0008F8620020444E00084A
:102BF00008B5302383F31188FFF76AFF002383F3BE
:102C0000118808BD836BD3F8C40080F40010C0F3B2
:102C10004050704708B5302383F3118800F5805089
:102C2000406DFFF703F9002383F3118840090CBFBF
:102C30000120184608BD000000F5805393F8692470
:102C400062B1816B8A6922F001028A61D3F8AC24F7
:102C50000132C3F8AC24002283F8692470470000D5
:102C60002DE9F743302181F31188002500F58351C8
:102C700041F2780E4FF0010800F5805C00EB45143E
:102C80007444267977071CD4F6061AD58E6908FA9B
:102C900006F9866BD6F8C87019EA070F11D04F688D
:102CA00001970F689742019F9F410AD2C6F8D090C2
:102CB000267946F004062671DCF898440134CCF8F5
:102CC00098440135202D01F12001D7D1002383F351
:102CD000118803B0BDE8F083F8B51E4600231370D9
:102CE0000F4605461446FFF795FF80F00100387047
:102CF0001EB12846FFF786FF2070F8BD2DE9F04F82
:102D000085B00E460193DDE90EB391F80090029371
:102D100092F800A08046174600F0A0F833780546E8
:102D20000C462BB93B781BB9002005B0BDE8F08FED
:102D30002A4623464046FFF793FFFFF759FFFFF768
:102D40007BFF019B3A463146FFF7C6FF337823B13C
:102D5000B9F1000F01D00120E7E73B7813B1BAF1D8
:102D6000000FF8D108F580530393029B5D459C4109
:102D7000DAD2039BD3F864040028D5D00368ABEB08
:102D800005011B689847019B3A4631464046FFF7CC
:102D9000A3FF337813B1B9F1000FDCD13B7813B145
:102DA000BAF1000FD7D100F059F805460C46DCE720
:102DB00008B500210846FFF7BFFEBDE8084001F056
:102DC000CDB8000008B501210020FFF7B5FEBDE831
:102DD000084001F0C3B8000008B500210120FFF74A
:102DE000ABFEBDE8084001F0B9B8000008B501210C
:102DF0000846FFF7A1FEBDE8084001F0AFB80000AB
:102E000000B59BB0EFF3098168226846FEF7F0FC3D
:102E1000EFF30583014B9B6BFEE700BF00ED00E085
:102E200008B5FFF7EDFF000000B59BB0EFF3098197
:102E300068226846FEF7DCFCEFF30583014B5B6B11
:102E4000FEE700BF00ED00E0FEE700000FB408B5AC
:102E5000029801F0A7FAFEE701F092BD01F074BDFF
:102E60000139C9B202299EBF00EBC1000023C0E9AD
:102E7000013370472DE9F8431E461B885B07054662
:102E8000884605D400F10C0400F12409A14502D1C3
:102E90000120BDE8F88354F8083C13B954F8043C09
:102EA0006BB12B6828465B6B9847338854F8047CD9
:102EB000C1B243F0040354F8080C4246B847083442
:102EC000E4E7000073B56C4684E806000146002282
:102ED0004E68551C66B98E6856B900EBC200021DDB
:102EE00094E8030082E803001D70012002B070BD69
:102EF000032D2A4601F10801EAD10020F6E700007F
:102F00002DE9F04F89B00446BDF848808B4600F1AA
:102F10000C0500F12409002708F0040AA94503D193
:102F2000012009B0BDE8F08F55F8083C13B955F8F9
:102F3000043C63B1BAF1000F0BD1236820465B6BF0
:102F400098474346C1B25A4655E90206B04708358C
:102F5000E4E70FBB00220023CDE90023ADF80870A1
:102F60005B4603AA0BF1080C18685968174603C79B
:102F7000083363453A46F7D1186838609B88BB80B0
:102F8000FFF76CFF0423ADF808302368CDE900019A
:102F90009B6B6946204698470127D8E70E2809D839
:102FA000DFE800F01515151515151515150A0C0E89
:102FB00010121400402070470C20704710207047FA
:102FC0001420704718207047202070473020704729
:102FD0000E2809D8DFE800F015151515151515157B
:102FE000150A0C0E10121400402070470C20704778
:102FF0001020704714207047182070472020704719
:10300000302070472DE9F043456A35B94162BDE88B
:10301000F083CEF800100B60F9E74E6826F0604CA4
:10302000C6F38A47C6F3807817EA260738BF674693
:10303000AE462B465C6894EA060F24F060420CD53D
:10304000002C1EDA920CBA4201D0BA420FD99D422E
:10305000DFD10D60DAE71346ECE7944505D104F0C3
:103060008049C4F38074444507D19445EFD31A686E
:103070009E46002AEFD11960C9E7B9F1000FF6D0DA
:10308000E5E7BA42F3D0E0E72DE9F047089E01F00A
:1030900007054FEAD6082A4406F0070600EBD101DF
:1030A0004FF47F49954201D1BDE8F08705F0070C48
:1030B00006F0070AD445674638BF5746C7F10807E8
:1030C000501BEC08874228BF07460C5D08EBD60072
:1030D00004FA0CF413F800E029FA07FC24FA0AF4C5
:1030E0005FFA8CFC8EEA04044CFA0AFC04EA0C0435
:1030F0008EEA040E03F800E03D443E44D2E70000AF
:1031000080EA0120082341F2210201B24000002997
:1031100080B203F1FF33B8BF504013F0FF03F4D186
:103120007047000038B50C468D18A54200D138BD57
:1031300014F8011BFFF7E4FFF7E7000003464068BF
:1031400048B102685A605A899989013292B2914213
:103150005A8138BF9A81704770B588B020220446E2
:103160000D4668460021FEF74FFB20460495FFF709
:10317000E5FF024658B16B46054608AE1C4603CC37
:10318000B44228606960234605F10805F6D110466F
:1031900008B070BD2DE9F843078C072F04461ED9EF
:1031A000D0E9029800254FF6FF73C5F12006A5F17E
:1031B000200029FA05F108FA06F628FA00F0314352
:1031C0000143C9B21846FFF79BFF0835402D03465F
:1031D000EBD1E1693A46BDE8F843FFF7A3BF4FF6EC
:1031E000FF70BDE8F883000010B54B6823B9CA8AA8
:1031F00063F30902CA8210BD04691A681C60036186
:10320000C38A013BC3824A60EFE700002DE9F84F13
:103210001C46CB8A8046C3F3090005280F46914619
:1032200003462ED000221A319DB2042D96B211D839
:10323000B44203F1010308D80444FB8AC4F309042F
:1032400064F30903FB82012019E019F80250CD5400
:103250000132E9E7B442EFD9A0F1050A1C237D68E9
:10326000BAFBF3F203FB12AA1FFA8AF295BB40469F
:10327000FFF764FF054630B978606FF00200BDE8E3
:10328000F88F0026E8E70022026078604FF0000A1D
:10329000B44242D9D31C2B44901B25E0013189B2A2
:1032A0001D462B68002BF9D1631F03441C20B3FB80
:1032B000F0F301339BB29942E8D2BAF1000FE5D1A5
:1032C0004046FFF73BFF38B1C0F800A052462860E7
:1032D0000546DBE70121E4E7C5F800A0CDE719F8D2
:1032E000061003F8011F013610FA86F189B21B2976
:1032F0001FFA86FB03D85C45F1D85E46C8E75C45FB
:10330000FBD94046FFF71AFF28B1C0F800A0002201
:1033100028600546F1E72860AFE7FB8A1C448CE78C
:103320002DE9F74F1C465B69009207468846002B43
:1033300000F0B580238C2BB1E269002A00F0AF8049
:10334000072B4AD807F10C00FFF7F8FE054620B915
:103350006FF0020003B0BDE8F08F14220021FEF7E9
:1033600053FA228CE16905F10800FEF741FA208C3E
:10337000013080B208280DD90C2824D9102824D96E
:10338000142824D9182824D9202824D9312834BF36
:103390000E200F20FFF71CFE013880B22084013080
:1033A00028746369228C1B782A4403F01F0363F09E
:1033B0003F03137248F0004338466B602946FFF71D
:1033C00021FE0120C6E70920E4E70A20E2E70B20FE
:1033D000E0E70C20DEE70D20DCE702339BB207229A
:1033E000C18A0633B3FBF2F3828A521A9BB292B2BD
:1033F0009342ADD8002500F10C034FF08009AA4696
:103400002E460193238CB34201D128B2A2E7019842
:10341000FFF794FE834600289AD014220021FEF77D
:10342000F3F956B9009BABF8083002220BF1080CF7
:10343000218CB14203D890B20BE00022F6E7E1699B
:10344000895D0CF80210013290B201360728B6B23D
:10345000EED1228C013080B2FFF7BAFDB24208BF34
:103460004FF0400962691278013802F01F021BFA1E
:1034700080F142EA4A1249EA02020A72013048F037
:1034800000428BF81000CBF8042059463846FFF76D
:10349000B9FD8AF0010A01354FF00009B2E76FF07B
:1034A000010057E7F8B515460E46302200210446C4
:1034B0001F46FEF7A9F9B5F5001F069B636034BFF0
:1034C0006A094FF6FF72079BA76095B2A362E66197
:1034D00004F1100006EB4212964206D1002303606D
:1034E000A582E3822383E360F8BD06603046203680
:1034F000F2E7000003781BB94BB2002BC8BF017084
:103500007047000000787047F8B50C46C969074657
:1035100009B9238CB3BB257E1F2D33D83B7823BB41
:10352000228C072A2BD8268A032E2BD84FF6FF7021
:10353000FFF7F8FD20F001003602400446EA056678
:10354000400C46EA40254FF6FF722346294638468E
:10355000FFF7E6FE002807DD626913780133DBB26E
:103560001F2B88BF00231370F8BD228A2D0645EA61
:10357000022520461D43FFF70DFE0246E5E76FF0EA
:103580000300F1E76FF00100EEE7000070B58AB0CC
:10359000044616460021282268461D46FEF734F9E7
:1035A000BDF83830ADF810300F9B05939DF84030D2
:1035B0008DF81830119B07936946BDF84830ADF877
:1035C00020302046CDE90265FFF79EFF0AB070BDAE
:1035D0002DE9F041D36905460C4616460BB9138C0C
:1035E0005BBB377E1F2F28D895F80080B8F1000FFD
:1035F00026D03046FFF7CEFD3378210241EAC331B1
:1036000041EA0801338A41EA076141EA034102467F
:10361000334641F080012846FFF782FE00280ADD8C
:103620003378012B07D1726913780133DBB21F2B7A
:1036300088BF00231370BDE8F0816FF00100FAE746
:103640006FF00300F7E70000F0B58BB004460D46BD
:1036500017460021282268461E46FEF7D5F89DF839
:103660004C305A1E534253418DF800309DF8403083
:10367000ADF81030119B05939DF848308DF8183047
:10368000149B07936A46BDF85430ADF820302946A4
:103690002046CDE90276FFF79BFF0BB0F0BD00009E
:1036A000406A00B104307047436A1A684262026996
:1036B0001A600361C38A013BC38270472DE9F84356
:1036C000D0F82090194F14461E4649464FF0000886
:1036D00009B9BDE8F883D1E90252651B66EB020225
:1036E000AF4278EB02021ED2036A8B420DD1FFF784
:1036F0007BFD036A1B68036203690B60C38A016177
:10370000016A013BC3828946E2E7FFF76DFD0B6862
:10371000C9F8003003690B60C38A0161013BC382B1
:10372000D9F80010D4E789460968D1E780841E00E3
:103730002DE9F04F8BB00D46DDF850800493144610
:103740008246002800F01881B8F1000F00F01481C3
:10375000531E3F2B00F21081012A03D1049B002B42
:1037600040F00A81BAF814B00023B5EBCB0FCDE9D5
:1037700008334FEACB0703D300200BB0BDE8F08F2E
:103780002B199F42DAF80C3003933ABF7F1BFFB22C
:1037900027461BB9DAF81030002B75D0272D4AD8F0
:1037A000C5F12806B7424FF000032CBFF6B23E46E3
:1037B00000932946DAF8080008AB3246FFF764FCAC
:1037C000A7EB060935445FFA89F90BF1005BABF111
:1037D000050B4FEACB0B2821039B13B1B9F1000F66
:1037E0002CD1DAF8100040B1B9F1000F05D00096E5
:1037F00008AB4A46691AFFF747FC38B2002FBBD026
:1038000067070AD00AAB03EBD401624211F8083C07
:1038100002F00702134101F8083C082C3BD9102C98
:1038200040F2B580202C40F2AD80049B002B00F0CC
:103830009780082332E0B9460026C6E75B46E02BB6
:1038400028BFE02306930B44AB42059314D95A1BBF
:1038500003980096914534BF4A46D2B2691A08AB24
:1038600004300792FFF710FC079A16441544A9EBA1
:103870000202F6B25FFA82F9069B0599ABEB030BE5
:10388000039B1B680393A7E70093DAF8080008ABD3
:103890003A462946AFE7049B93B10123B4EBC30F2B
:1038A00063D0082C11D89DF82030621E23FA02F252
:1038B000D60705D54FF0FF32A24013438DF82030D4
:1038C0009DF8203088F8003057E7102C11D8BDF84B
:1038D0002030621E23FA02F2D50705D54FF0FF32E1
:1038E000A2401343ADF82030BDF82030A8F80030D6
:1038F00043E7202C0ED8089A631E22FA03F3D90757
:1039000004D54FF0FF33A34013430893089BC8F836
:10391000003032E7402C32D0DDE90851631EC4F19B
:103920002106A4F1210225FA03F301FA06F6334336
:1039300021FA02F21343DB0712D50123A4F120027E
:10394000C4F1200603FA02F223FA06F6A3405B4212
:1039500042EA060262EB42022B430A43CDE90832F7
:10396000DDE90823C8E9002307E7082CA8D0102CBC
:10397000BAD0202CF4D1C9E76FF00100FDE66FF05A
:103980000800FAE6049B002BC0D0042386E7049BC2
:10399000002BA9D0022381E730B5012A144638BF95
:1039A0000122402A85B028BF40220025012CCDE904
:1039B00002550ED81B788DF8083004AB03EBD20506
:1039C000544215F8083C04F00704A34005F8083CED
:1039D00006E0082C0CD81B788DF808305307ECD182
:1039E00000910346002102A8FFF74EFB05B030BD51
:1039F000102C03D81B88ADF80830EFE7202C8DBFC2
:103A0000D3E900451B680293CDE90245E6E70000D3
:103A100010B5CB681BB98B600B618B8210BD04693C
:103A20001A681C600361C38A013BC382CA60F0E765
:103A300003064CBFC0F3C0300220704708B50246F1
:103A4000FFF7F6FF022806D15306C2F30F2001D17B
:103A500000F0030008BDC2F30740FBE72DE9F04F7B
:103A6000D1F8008097B004464046CDE90623FFF721
:103A7000DFFF022814BFC8F306260026B8F1000FA6
:103A80000D46039080F2F88118F0C04A40F0F481AE
:103A9000097B002900F0F081039B022B03D02378DF
:103AA000B34240F0EC8108F07F0340460493FFF7F7
:103AB000C5FF049B059029444FEA8349039B91F875
:103AC00003B049EA034949EA4669002200235FEA54
:103AD000DB16CDE90C2349EA000978D0049B00935A
:103AE00002466768039B0CA92046B847002800F0EF
:103AF000C981276A002F58D1494604F10C00FFF70D
:103B00002BFB0746002800F0EF8027626B7B0A93AF
:103B1000BB7E0B93FB7D0BF01F09C3F38403A3EB68
:103B200009001FFA80FC0028B8BF0CF1200C089097
:103B3000A9EB0303B8BF0FFA8CF0D7E902121FFA02
:103B400083FCB8BF0890002BB8BF0CF1200C099380
:103B5000BCBF0FFA8CF3099351EA020ED7F804C0E8
:103B600000F0A981069B591A079B63EB0202B14B37
:103B70004FF0000E8B427EEB0203C0F09C81DDE92A
:103B80000A30834240F08A81002E36D0089B012BF8
:103B900000F39181BCF1000F40F08D81A64888426E
:103BA0007CEB0202C0F0838130E03B699945ADD0E7
:103BB0003F68002FF9D1494604F10C00FFF7CCFA19
:103BC0000746002800F09080236A3B609DE7276A43
:103BD00077B9049B00936568039B059A0CA920465E
:103BE000A847C0F57F40F43000B217B0BDE8F08FB1
:103BF0003B6999458AD03F68EAE78F4B8B4276EB69
:103C0000020203D26A7BBB7E9A4239D1C8F30468B0
:103C1000002E37D01BF0400F34D0069BBB60079BB3
:103C2000FB601422002111A8FDF7EEFD069B0E9308
:103C3000079B0F932B1D10932B7B8DF85190013B0D
:103C4000DBB2ADF84C30059BADF84E30039B8DF8E0
:103C50005030049B8DF8533094F82C308DF85280FE
:103C600083F001038DF854300EA9A36820469847CD
:103C7000FB7DC3F38403013303F01F039B02FB822C
:103C80000020B2E7FB7DCBF34012B2EBD31F40F034
:103C9000FC80C3F384034B4540F0FA802B7B002E5D
:103CA00051D0032B40F2F780069BBB60079BFB6063
:103CB000FB8A6FF30903FB822B7BAE1D033BDBB258
:103CC0003246394604F10C00FFF7A0FA00280EDA5C
:103CD00039462046FFF788FAFB7DC3F3840301339E
:103CE00003F01F039B02FB826FF002007DE7DDE91A
:103CF0000C84AB883B834FF6FF73CAF12000AAF116
:103D0000200228FA0AF104FA00F0014324FA02F230
:103D100011431846C9B2FFF7F3F90AF1080ABAF1DC
:103D2000400F0346E9D1B8822A7B033AD2B231462A
:103D3000FFF7F8F9FB7DB882DA43C2F3C01262F3F1
:103D4000C713FB759CE7013B5FEA9B1BDBB20ED1FF
:103D50002E1D3246394604F10C00FFF757FA0028B1
:103D6000B6DB2A7BB88A013AD2B23146E0E7FA8A5A
:103D7000C2F30902042A61D86BB1E91C07F11B00E8
:103D800011F801CF00F802C001320136052AF6B25F
:103D900001D09E42F4D3069A0E92079A0F929E4249
:103DA00007F11B02109238BF04367A68119234BFB3
:103DB00055FA86F600261296FA8A8DF85190C2F3CB
:103DC00009021344ADF84C30059BADF84E30039B0F
:103DD0008DF85030049B8DF8533094F82C308DF8CA
:103DE000528083F001038DF8543000237B602A7BDE
:103DF000B88A013A291DFFF795F93B8BB8828342B7
:103E000003D1A3680EA92046984720460EA9FFF7C4
:103E1000FFFDFB7DBA8AC3F38403013303F01F0364
:103E20009B02FB823B8B9A4214BF6FF01000002074
:103E3000DBE600BF80841E0040420F007868002847
:103E4000A9D0052101E01C3130460668002EFAD1C8
:103E5000521AD11C05F1030C014402EB0A001B2885
:103E60005FFA8AF697D89E4295D21CF8010F01F8A6
:103E7000010F0AF1010AF0E76FF00900B5E66FF0F3
:103E80000A00B2E66FF00B00AFE66FF00D00ACE693
:103E90006FF00E00A9E66FF00F00A6E61448884206
:103EA0007EEB0202BFF4ECAE002E3FF4ABAE099BFA
:103EB0000F2B3FF7A7AEFA7D4FEA8B0302F0030208
:103EC00003F07C031343FB7539462046FFF78CF95A
:103ED0006B7BBB76002E7FF495AEFB7DC3F3840233
:103EE000013262F38603FB756FF00C007DE600BFC4
:103EF00040420F00EFF3098305494A6B22F00102AB
:103F00004A63683383F30988002383F31188704779
:103F100000EF00E0302080F3118862B60C4B0D4AB0
:103F2000D96821F4E0610904090C0A43DA60D3F886
:103F3000FC20094942F08072C3F8FC200A6842F074
:103F400001020A602022DA7783F82200704700BF5E
:103F500000ED00E00003FA05001000E010B530238A
:103F600083F311880E4B5B6813F4006314D0F1EEF9
:103F7000103AEFF30984683C4FF08073E361094B1A
:103F8000DB6B236684F3098800F0D0F910B1064B8F
:103F9000A36110BD054BFBE783F31188F9E700BF70
:103FA00000ED00E000EF00E03F03000842030008DE
:103FB000404B4FF4007270B51A605A6912F4C06F2A
:103FC000FBD13D4B9A6802F00C02042A20D01A68FB
:103FD00042F480721A601A685205FCD501229A6078
:103FE0009A6802F00C02042AFAD13449344A0A6071
:103FF0000A6812F00F02FBD1C3F8982063221A60FE
:104000001A689603FCD42B4A4FF48071C2F88010D2
:10401000C468E50306D51A6842F480321A601A684B
:104020009103FCD5C269D20709D5D3F8982042F094
:104030000102C3F89820D3F898209607FBD542696F
:10404000DA6044F480721A6004F0807111B11A6869
:104050009501FBD502699D68184E114665F3010173
:10406000996085693560316869400907FBD111495C
:1040700005680D6046684E608068C1F880006E0477
:1040800014D448698505FCD4996862F301019960EC
:1040900092009968514011F00C0FFAD1E2055EBF11
:1040A0001A6822F480721A60002070BD4869800589
:1040B000FCD5E9E7007000400010024000200240FB
:1040C0000006040008B500F095F8BDE8084000F0CF
:1040D0008DB8000010B5394C3948A36A4FF0FF3253
:1040E000A262A36A0023A362A16AE16A61F07F0170
:1040F000E162E16A01F07F01E162E16A216B226322
:10410000216B2363216BA16BA263A16BA363A16BE2
:10411000E16BE263E16BE363E16B216C2264226C8F
:104120002364226C226E42F001022266D4F88020C1
:1041300022F00102C4F88020D4F88020A26D42F061
:104140008052A265A26F22F08052A267A26F1D4A20
:104150004FF400419160D360136253629362D36263
:10416000136353639363D363136453649364D3649B
:1041700013655365116841F480711160D4F8902083
:1041800012F4407F1EBF4FF48032C4F89020C4F870
:1041900090300D4A0023A360C4F88820C4F89C30F6
:1041A000FFF706FF10B1094800F0FCF8D4F8903092
:1041B00023F00323C4F8903010BD00BF001002406C
:1041C0004C4E00080070004055010051C44D0008DD
:1041D000014B53F8200070476823002008B500F019
:1041E000E1FCBDE80840FFF7B9BE000007211C2034
:1041F00000F014B84FF0E023002258684FF0FF3170
:10420000930003F1604303F5614301329042C3F828
:104210008010C3F88011F3D27047000000F16043B2
:1042200003F561430901C9B283F80013012200F0CC
:104230001F039A4043099B0003F1604303F5614368
:10424000C3F880211A6070470023037582680369F0
:104250001B6899689142FBD25A6803604260106003
:104260005860704700230375826803691B6899686A
:104270009142FBD85A6803604260106058607047F2
:1042800008B50846302383F311880B7D032B05D036
:10429000042B0DD02BB983F3118808BD8B69002244
:1042A0001A604FF0FF338361FFF7CEFF0023F2E780
:1042B000D1E9003213605A60F3E70000FFF7C4BF92
:1042C00038B50A4BDD681C68287522681A6053608F
:1042D000DC60A36801229342227501D100F010FC3A
:1042E00029462046BDE83840FCF714B81865002080
:1042F00030B50C4BDD684B1C87B004460FD02B4605
:10430000094A684600F030F92046FFF7D9FF009BC4
:1043100013B1684600F032F9A86907B030BDFFF765
:10432000CFFFF9E71865002081420008044B1A68A6
:10433000DB6890689B68984294BF0020012070471A
:104340001865002038B50B4B1C68DD6822681A60C0
:10435000536001222275DC60AB68934201D100F00A
:10436000D1FB2846FFF77EFF01462046BDE83840D6
:10437000FBF7D0BF1865002038B5074C074908483F
:10438000012300252370656000F03AFC02232370AE
:1043900085F3118838BD00BF706500206C4E0008A1
:1043A0001865002008B572B6044B186500F0AEFA27
:1043B00000F064FB024B03221A70FEE71865002030
:1043C0007065002000F010B98B60022308618B82B9
:1043D000084670478368A3F1840243F8142C0269ED
:1043E00043F8442C426943F8402C094A43F8242CF2
:1043F000C26843F8182C022203F80C2C002203F8A0
:104400000B2C044A43F8102CA3F12000704700BF86
:104410002D0300081865002008B5FFF7DBFFBDE895
:104420000840FFF74BBF0000024BDB6898610F208C
:10443000FFF746BF18650020302383F31188FFF78C
:10444000F3BF000008B50146302383F3118808202C
:10445000FFF74EFF002383F3118808BD10B50368F2
:104460009C68A2420CD85C688A600B604C6021603A
:1044700059609968891A99604FF0FF33836010BDC5
:104480001B68121BECE700000A2938BF0A2170B52F
:1044900004460D460A26601900F0ACFB00F098FBBC
:1044A000041BA54203D8751C2E460446F3E70A2ECA
:1044B00004D9BDE87040012000F0E2BB70BD0000EF
:1044C000F8B5144B1446D961826003F110024260C2
:1044D0000A2C1A69026038BF0A2450601861081952
:1044E0000D4600F079FB0A2700F072FB431BA34244
:1044F000064606D37C1C281900F07CFB274635466F
:10450000F2E70A2F04D9BDE8F840012000F0B8BB5B
:10451000F8BD00BF1865002070B50D46064600F0D6
:1045200057FB0F490B4653F8102F9A4206D12A46E3
:1045300001463046BDE87040FFF7C2BFCB69C41AE0
:104540002C19936828BF2C46A34202D92946FFF7AD
:104550009BFF224631460348BDE87040FFF77EBF0F
:10456000186500202865002010B4C0E9032300234B
:104570005DF8044B4361FFF7CFBF000010B5194C45
:10458000236998420DD0D0E90032816813605A60E7
:104590009A680A449A60002303604FF0FF33A361D6
:1045A00010BD2346026843F8102F536000220260BA
:1045B00022699A4203D1BDE8104000F015BB936810
:1045C00081680B44936000F003FB2269E169926803
:1045D000441AA242E4D91144BDE81040091AFFF779
:1045E00053BF00BF186500202DE9F047DFF8B88001
:1045F00008F110072B4ED8F8105000F0E9FAD8F85F
:104600001C40AA68011B8A423DD81444D5E90032F7
:10461000C8F81C4013605A6000232B60D8F81020A3
:10462000B242994601D100F0DFFA89F31188D5E949
:10463000033128469847302383F311886B69002B98
:10464000D9D000F0C5FA6A69A0EB04094A45824650
:104650000DD2022000F014FB0022D8F81030B34233
:1046600008D151462846BDE8F047FFF729BF22444C
:10467000121AF2E712EB090938BF4A4629463846B2
:10468000FFF7ECFEB6E7D8F81010B14208D014449A
:10469000211AC8F81C00A960BDE8F047FFF7F4BE76
:1046A000BDE8F087286500201865002038B500F0C7
:1046B0008FFA054AD2E90845031B181945F1000194
:1046C000C2E9080138BD00BF18650020002070470E
:1046D000FEE70000704700004FF0FF307047000019
:1046E000BFF34F8F024A1369DB03FCD4704700BF4E
:1046F0000020024008B5094B1B7873B9FFF7F0FFA3
:10470000074B5A69002ABFBF064A9A6002F18832F5
:104710009A601A6822F480621A6008BD88650020D9
:10472000002002402301674508B50B4B1B7893B965
:10473000FFF7D6FF094B5A6942F000425A611A68E6
:1047400042F480521A601A6822F480521A601A6881
:1047500042F480621A6008BD886500200020024093
:10476000FF289ABF00F58030C0020020704700008B
:104770004FF40060704700004FF4807070470000F5
:10478000FF2808B50ED8FFF7EBFF0368013309D106
:1047900000F500630430834201D1012008BD0268A6
:1047A0000132F7D00020F9E7FF2838B5044624D8B5
:1047B000FFF796FFFFF79EFF114AF32313610223D1
:1047C0005361C3005169C50903F47E7343EAC523ED
:1047D0000B435361536943F480335361FFF780FF08
:1047E0004FF40061FFF7BCFF00F044F9FFF79CFFB6
:1047F0002046BDE83840FFF7C3BF002038BD00BFEA
:104800000020024040EA02035B072DE9F041144614
:1048100006D02E4B4FF461721A600020BDE8F08183
:104820002B4B82189A420FD9284B40F28932F3E77A
:1048300002680B689A420AD1031D1B684A689342BA
:1048400005D1083C08300831072CF1D864B1FFF7D6
:1048500051FFFFF745FF1F4E083101274FF00008B9
:10486000012C03D8FFF760FF0120D7E777610546E9
:1048700051F8083C45F8043B51F8043C4360FFF70D
:104880002FFF336943F001033361C6F814800268D7
:1048900051F8083C9A420DD00C4B40F2B1321A60EC
:1048A0000D4B18600D4B1C600D4B08391960FFF75C
:1048B0003BFFB2E72D6851F8042C954201F1080343
:1048C000EAD1083C08301946CAE700BF84650020D9
:1048D0000000080800200240806500207C65002060
:1048E00078650020084908B50B7828B11BB9FFF797
:1048F00001FF01230B7008BD002BFCD0BDE8084070
:104900000870FFF711BF00BF8865002008B5064991
:10491000064800F0B1F8BDE808404FF400414FF000
:10492000805000F0A9B800BF007F01000001002006
:1049300008461146FBF766BD0120FBF763BD00008A
:104940000846FBF781BD000038B5EFF311859DB92E
:10495000EFF30584C4F30804302334B183F31188E2
:10496000FFF7A4FE85F3118838BD83F31188FFF7A4
:104970009DFE84F3118838BDBDE83840FFF796BE30
:1049800038B5FFF7E1FF104C104AC00840EA41700B
:10499000A0FB025EC908A0FB040C1CEB05004FF055
:1049A0000003A1FB04455B410019A1FB021043EB8E
:1049B000050311EB0E0140F100005B1840F100000F
:1049C0001B0943EA007038BDCFF753E3A59BC42011
:1049D0000244D2B2904200D17047431C800000F1E3
:1049E000804000F51450006841F8040BD8B2F1E79C
:1049F000124B10B5D3F89040240409D4D3F890405A
:104A0000C3F89040D3F8904044F40044C3F8904079
:104A10000B4C2368024443F480732360D2B290426B
:104A200000D110BD431C800000F1804000F51450FF
:104A300051F8044B0460D8B2F1E700BF0010024007
:104A40000070004007B5012201A90020FFF7C0FF58
:104A5000019803B05DF804FB13B50446FFF7F2FFBD
:104A6000A04205D0012201A900200194FFF7C0FF58
:104A700002B010BD70470000704700007047000092
:104A8000074B45F255521A6003225A6040F2FF72FA
:104A90009A604CF6CC421A60024B01221A707047A1
:104AA0000030004089650020034B1B781BB1034B8D
:104AB0004AF6AA221A60704789650020003000403B
:104AC000054B1A6832B902F1804202F50432D2F87D
:104AD00094201A60704700BF8C650020024B4FF491
:104AE0000002C3F8942070470010024008B5FFF799
:104AF000E7FF024B1868C0F3407008BD8C650020CA
:104B0000704700007047000070470000FEE700009B
:104B10000A4B0B480B4A90420BD30B4BDA1C121A70
:104B2000C11E22F00302994288BF00220021FCF737
:104B30006BBE53F8041B40F8041BECE7D84F000889
:104B400090650020906500209065002008B5124B0C
:104B50009A6D42F001029A659A6F42F001029A67DB
:104B60000E4A9B6F936843F0010393600620FFF7A2
:104B70002FFB0B4BB0FBF3F04FF080434FF0FF32B5
:104B800001389862DA6200229A615A63DA605A60E8
:104B900001225A611A6008BD00100240002004E0A2
:104BA00040420F004FF0804208B51169D3680B40B6
:104BB000D9B2C9439B07116107D5302383F311880C
:104BC000FFF700FC002383F3118808BDFFF7BEBF89
:104BD0004FF08043586A70474FF08043002258637B
:104BE0001A610222DA6070474FF080430022DA60D7
:104BF000704700004FF0804358637047FEE70000A5
:104C000070B51B4B01630025044686B085620E46D5
:104C10005860FFF77FF904F11003C4E904334FF043
:104C2000FF33C4E90635C4E90044A560E562FFF737
:104C3000CFFF2B460246C4E9082304F134010D4A94
:104C4000256580232046FFF7BFFB0123E0600A4A69
:104C50000375009272680192B268CDE90223074B96
:104C60006846CDE90435FFF7D7FB06B070BD00BF3D
:104C700070650020CE4D0008D34D0008FD4B0008A4
:104C8000024AD36A0343D362704700BF186500200D
:104C90004B6843608B688360CB68C3600B6943617A
:104CA0004B6903628B6943620B68036070470000C5
:104CB00008B5204BDA6A42F07F02DA62DA6A22F043
:104CC0007F02DA62DA6ADA6C42F07F02DA64DA6E64
:104CD00042F07F02DA66184ADB6E11464FF09040D0
:104CE000FFF7D6FF02F11C0100F58060FFF7D0FF4F
:104CF00002F1380100F58060FFF7CAFF02F15401AC
:104D000000F58060FFF7C4FF02F1700100F58060DC
:104D1000FFF7BEFF02F18C0100F58060FFF7B8FFDE
:104D200002F1A80100F58060FFF7B2FFBDE808407E
:104D3000FFF7D0B900100240784E000808B500F027
:104D400009F8FFF719FBBDE80840FFF7B9BE0000FE
:104D50007047000008B5FFF7B5F900F007F8FFF756
:104D6000F7FFBDE80840FFF731BF000070470000C3
:104D70000B4601461846FBF751BB00006F72672EC9
:104D80006172647570696C6F742E4D6174656B47E8
:104D90003437342D4453686F742D5348540040A267
:104DA000E4F1646891060041A3E5F26569920700A9
:104DB0004261642043414E496661636520696E64C7
:104DC00065782E00636C6B737763006330006D61F0
:104DD000696E0069646C650000000000000000005E
:104DE000A925000875200008FD2C0008D520000822
:104DF000E1200008D5220008A12000087D2000083D
:104E0000712000089122000889200008C52E0008A2
:104E1000612E0008952000086522000801040E0597
:104E2000054B02020E05054B04010E05054B05015D
:104E30000B04044B08010603034600000001FF00B9
:104E40000001000000640040006800400003000012
:104E5000000000000001000000000101030000004C
:104E6000032831010407040001000000CB4D0008B5
:104E700008630020186500200000802A0000000060
:104E8000AAAAAAAA00000024FFFF00000000000058
:104E9000009009000028000100000000AAAAAAAAA8
:104EA00000000001FFFF000000009009000000006A
:104EB0000000001400000000AAAAAAAA0000001026
:104EC000FFDF000000000000000000000000000004
:104ED00000000000AAAAAAAA00000000FFFF00002C
:104EE00000000000000000000000000000000000C2
:104EF000AAAAAAAA00000000FFFF0000000000000C
:104F0000000000000000000000000000AAAAAAAAF9
:104F100000000000FFFF0000000000000000000093
:104F20000000000000000000AAAAAAAA00000000D9
:104F3000FFFF00000000000000000000B8BAFF7F83
:104F400001000000FFFFFFFF04230020000000001D
:104F50000000000068000000D00000000000000019
:104F60000000000000000000000000000000000041
:104F70000000000000000000000000000000000031
:104F80000000000000000000000000000000000021
:104F9000000000000000000092040000000000007B
:104FA0000070070000000000FE2A0100D20400008B
:104FB000006889096D8BB90200B4C40400688909CE
:104FC00000688909006889090068890900688909F9
:084FD0000068890900000000DF
:00000001FF
